{
  "contractName": "ExerciseC6A",
  "abi": [
    {
      "inputs": [],
      "stateMutability": "nonpayable",
      "type": "constructor"
    },
    {
      "inputs": [
        {
          "internalType": "address",
          "name": "account",
          "type": "address"
        }
      ],
      "name": "isUserRegistered",
      "outputs": [
        {
          "internalType": "bool",
          "name": "",
          "type": "bool"
        }
      ],
      "stateMutability": "view",
      "type": "function"
    },
    {
      "inputs": [],
      "name": "IsContractPaused",
      "outputs": [
        {
          "internalType": "bool",
          "name": "",
          "type": "bool"
        }
      ],
      "stateMutability": "view",
      "type": "function"
    },
    {
      "inputs": [
        {
          "internalType": "address",
          "name": "account",
          "type": "address"
        },
        {
          "internalType": "bool",
          "name": "isAdmin",
          "type": "bool"
        }
      ],
      "name": "registerUser",
      "outputs": [],
      "stateMutability": "nonpayable",
      "type": "function"
    },
    {
      "inputs": [
        {
          "internalType": "bool",
          "name": "state",
          "type": "bool"
        }
      ],
      "name": "setOperationStatus",
      "outputs": [],
      "stateMutability": "nonpayable",
      "type": "function"
    }
  ],
  "bytecode": "0x60806040526001600260006101000a81548160ff021916908315150217905550600067ffffffffffffffff811115610060577f4e487b7100000000000000000000000000000000000000000000000000000000600052604160045260246000fd5b60405190808252806020026020018201604052801561008e5781602001602082028036833780820191505090505b50600390805190602001906100a49291906100f7565b503480156100b157600080fd5b50336000806101000a81548173ffffffffffffffffffffffffffffffffffffffff021916908373ffffffffffffffffffffffffffffffffffffffff16021790555061019e565b828054828255906000526020600020908101928215610170579160200282015b8281111561016f5782518260006101000a81548173ffffffffffffffffffffffffffffffffffffffff021916908373ffffffffffffffffffffffffffffffffffffffff16021790555091602001919060010190610117565b5b50905061017d9190610181565b5090565b5b8082111561019a576000816000905550600101610182565b5090565b610bfd806101ad6000396000f3fe608060405234801561001057600080fd5b506004361061004c5760003560e01c8063163f7522146100515780632c72366814610081578063951faf001461009d578063ab89def6146100b9575b600080fd5b61006b6004803603810190610066919061075e565b6100d7565b60405161007891906109ed565b60405180910390f35b61009b600480360381019061009691906107c3565b61019f565b005b6100b760048036038101906100b29190610787565b610469565b005b6100c1610676565b6040516100ce91906109ed565b60405180910390f35b60008073ffffffffffffffffffffffffffffffffffffffff168273ffffffffffffffffffffffffffffffffffffffff161415610148576040517f08c379a000000000000000000000000000000000000000000000000000000000815260040161013f90610a28565b60405180910390fd5b600160008373ffffffffffffffffffffffffffffffffffffffff1673ffffffffffffffffffffffffffffffffffffffff16815260200190815260200160002060000160009054906101000a900460ff169050919050565b600160003373ffffffffffffffffffffffffffffffffffffffff1673ffffffffffffffffffffffffffffffffffffffff16815260200190815260200160002060000160019054906101000a900460ff1661022e576040517f08c379a000000000000000000000000000000000000000000000000000000000815260040161022590610aa8565b60405180910390fd5b6000805b6003805490508110156102f3573373ffffffffffffffffffffffffffffffffffffffff1660038281548110610290577f4e487b7100000000000000000000000000000000000000000000000000000000600052603260045260246000fd5b9060005260206000200160009054906101000a900473ffffffffffffffffffffffffffffffffffffffff1673ffffffffffffffffffffffffffffffffffffffff1614156102e057600191506102f3565b80806102eb90610b21565b915050610232565b50600015158115151461033b576040517f08c379a000000000000000000000000000000000000000000000000000000000815260040161033290610a08565b60405180910390fd5b6003339080600181540180825580915050600190039060005260206000200160009091909190916101000a81548173ffffffffffffffffffffffffffffffffffffffff021916908373ffffffffffffffffffffffffffffffffffffffff160217905550600380805490501061044b5781600260006101000a81548160ff021916908315150217905550600067ffffffffffffffff811115610405577f4e487b7100000000000000000000000000000000000000000000000000000000600052604160045260246000fd5b6040519080825280602002602001820160405280156104335781602001602082028036833780820191505090505b506003908051906020019061044992919061068d565b505b81600260006101000a81548160ff0219169083151502179055505050565b600260009054906101000a900460ff166104b8576040517f08c379a00000000000000000000000000000000000000000000000000000000081526004016104af90610a48565b60405180910390fd5b60008054906101000a900473ffffffffffffffffffffffffffffffffffffffff1673ffffffffffffffffffffffffffffffffffffffff163373ffffffffffffffffffffffffffffffffffffffff1614610546576040517f08c379a000000000000000000000000000000000000000000000000000000000815260040161053d90610a68565b60405180910390fd5b600160008373ffffffffffffffffffffffffffffffffffffffff1673ffffffffffffffffffffffffffffffffffffffff16815260200190815260200160002060000160009054906101000a900460ff16156105d6576040517f08c379a00000000000000000000000000000000000000000000000000000000081526004016105cd90610a88565b60405180910390fd5b6040518060400160405280600115158152602001821515815250600160008473ffffffffffffffffffffffffffffffffffffffff1673ffffffffffffffffffffffffffffffffffffffff16815260200190815260200160002060008201518160000160006101000a81548160ff02191690831515021790555060208201518160000160016101000a81548160ff0219169083151502179055509050505050565b6000600260009054906101000a900460ff16905090565b828054828255906000526020600020908101928215610706579160200282015b828111156107055782518260006101000a81548173ffffffffffffffffffffffffffffffffffffffff021916908373ffffffffffffffffffffffffffffffffffffffff160217905550916020019190600101906106ad565b5b5090506107139190610717565b5090565b5b80821115610730576000816000905550600101610718565b5090565b60008135905061074381610b99565b92915050565b60008135905061075881610bb0565b92915050565b60006020828403121561077057600080fd5b600061077e84828501610734565b91505092915050565b6000806040838503121561079a57600080fd5b60006107a885828601610734565b92505060206107b985828601610749565b9150509250929050565b6000602082840312156107d557600080fd5b60006107e384828501610749565b91505092915050565b6107f581610aeb565b82525050565b6000610808602783610ac8565b91507f41646d696e2068617320616c72656164792063616c6c6564207468697320667560008301527f6e6374696f6e2e000000000000000000000000000000000000000000000000006020830152604082019050919050565b600061086e602283610ac8565b91507f276163636f756e7427206d75737420626520612076616c69642061646472657360008301527f732e0000000000000000000000000000000000000000000000000000000000006020830152604082019050919050565b60006108d4602583610ac8565b91507f436f6e74726163742069732063757272656e746c79206e6f74206f706572617460008301527f696f6e616c0000000000000000000000000000000000000000000000000000006020830152604082019050919050565b600061093a601c83610ac8565b91507f43616c6c6572206973206e6f7420636f6e7472616374206f776e6572000000006000830152602082019050919050565b600061097a601b83610ac8565b91507f5573657220697320616c726561647920726567697374657265642e00000000006000830152602082019050919050565b60006109ba601683610ac8565b91507f43616c6c6572206973206e6f7420616e2061646d696e000000000000000000006000830152602082019050919050565b6000602082019050610a0260008301846107ec565b92915050565b60006020820190508181036000830152610a21816107fb565b9050919050565b60006020820190508181036000830152610a4181610861565b9050919050565b60006020820190508181036000830152610a61816108c7565b9050919050565b60006020820190508181036000830152610a818161092d565b9050919050565b60006020820190508181036000830152610aa18161096d565b9050919050565b60006020820190508181036000830152610ac1816109ad565b9050919050565b600082825260208201905092915050565b6000610ae482610af7565b9050919050565b60008115159050919050565b600073ffffffffffffffffffffffffffffffffffffffff82169050919050565b6000819050919050565b6000610b2c82610b17565b91507fffffffffffffffffffffffffffffffffffffffffffffffffffffffffffffffff821415610b5f57610b5e610b6a565b5b600182019050919050565b7f4e487b7100000000000000000000000000000000000000000000000000000000600052601160045260246000fd5b610ba281610ad9565b8114610bad57600080fd5b50565b610bb981610aeb565b8114610bc457600080fd5b5056fea26469706673582212207a410b655e95fd914f6d47559cdf1b28b0bbf103bf22b4d536f711d68a9aef9c64736f6c63430008000033",
  "immutableReferences": {},
  "source": "// SPDX-License-Identifier: MIT\r\npragma solidity >=0.4.22 <0.9.0;\r\n\r\ncontract ExerciseC6A {\r\n\r\n    /********************************************************************************************/\r\n    /*                                       DATA VARIABLES                                     */\r\n    /********************************************************************************************/\r\n\r\n\r\n    struct UserProfile {\r\n        bool isRegistered;\r\n        bool isAdmin;\r\n    }\r\n\r\n    address private contractOwner;                  // Account used to deploy contract\r\n    mapping(address => UserProfile) userProfiles;   // Mapping for storing user profiles    \r\n\r\n    bool private operational = true;\r\n\r\n    uint constant M = 3;\r\n    address[] multiCalls = new address[](0);\r\n\r\n    /********************************************************************************************/\r\n    /*                                       EVENT DEFINITIONS                                  */\r\n    /********************************************************************************************/\r\n\r\n    // No events\r\n\r\n    /**\r\n    * @dev Constructor\r\n    *      The deploying account becomes contractOwner\r\n    */\r\n    constructor\r\n                                (                                    \r\n                                ) \r\n                                public \r\n    {\r\n        contractOwner = msg.sender;        \r\n    }\r\n\r\n    /********************************************************************************************/\r\n    /*                                       FUNCTION MODIFIERS                                 */\r\n    /********************************************************************************************/\r\n\r\n    // Modifiers help avoid duplication of code. They are typically used to validate something\r\n    // before a function is allowed to be executed.\r\n\r\n    /**\r\n    * @dev Modifier that requires the \"ContractOwner\" account to be the function caller\r\n    */\r\n    modifier requireContractOwner()\r\n    {\r\n        require(msg.sender == contractOwner, \"Caller is not contract owner\");\r\n        _;\r\n    }\r\n\r\n    modifier requireIsOperational()\r\n    {\r\n        require(operational, \"Contract is currently not operational\");\r\n        _;\r\n    }\r\n\r\n    modifier requireAdmin()\r\n    {\r\n        require(userProfiles[msg.sender].isAdmin, \"Caller is not an admin\");\r\n        _;\r\n    }\r\n    \r\n    modifier requireAdminSignOnlyOnce()\r\n    {\r\n        bool isDuplicate = false;\r\n        for(uint c=0; c<multiCalls.length; c++) {\r\n            if(multiCalls[c] == msg.sender) {\r\n                isDuplicate = true;\r\n                break;\r\n            }            \r\n        }\r\n\r\n        require(isDuplicate == false, \"Admin has already called this function.\");    \r\n        _;\r\n\r\n    }\r\n    /********************************************************************************************/\r\n    /*                                       UTILITY FUNCTIONS                                  */\r\n    /********************************************************************************************/\r\n\r\n   /**\r\n    * @dev Check if a user is registered\r\n    *\r\n    * @return A bool that indicates if the user is registered\r\n    */   \r\n    function isUserRegistered\r\n                            (\r\n                                address account\r\n                            )\r\n                            external\r\n                            view\r\n                            returns(bool)\r\n    {\r\n        require(account != address(0), \"'account' must be a valid address.\");\r\n        return userProfiles[account].isRegistered;\r\n    }\r\n\r\n\r\n    function IsContractPaused\r\n                            ()\r\n                             public view\r\n                            returns (bool)\r\n    {\r\n        return operational;\r\n    }\r\n    /********************************************************************************************/\r\n    /*                                     SMART CONTRACT FUNCTIONS                             */\r\n    /********************************************************************************************/\r\n\r\n    function registerUser\r\n                                (\r\n                                    address account,\r\n                                    bool isAdmin\r\n                                )\r\n                                external\r\n                                requireIsOperational\r\n                                requireContractOwner                                \r\n    {\r\n        require(!userProfiles[account].isRegistered, \"User is already registered.\");\r\n\r\n        userProfiles[account] = UserProfile({\r\n                                                isRegistered: true,\r\n                                                isAdmin: isAdmin\r\n                                            });\r\n    }\r\n\r\n    function setOperationStatus \r\n                                (\r\n                                    bool state\r\n                                )\r\n                            external                            \r\n                            requireAdmin \r\n                            requireAdminSignOnlyOnce\r\n    {                        \r\n\r\n        multiCalls.push(msg.sender);\r\n        if(multiCalls.length >= M) {\r\n            operational = state;\r\n            multiCalls = new address[](0);\r\n        }\r\n\r\n        operational = state;        \r\n    }\r\n}\r\n\r\n",
  "sourcePath": "E:\\ws\\mydappsandorackes\\dapps_and_oracles\\contracts\\ExerciseC6A.sol",
  "compiler": {
    "name": "solc",
    "version": "0.8.0+commit.c7dfd78e.Emscripten.clang"
  },
  "schemaVersion": "3.4.3",
  "updatedAt": "2021-08-24T19:12:26.631Z",
  "devdoc": {
    "kind": "dev",
    "methods": {
      "constructor": {
        "details": "Constructor      The deploying account becomes contractOwner"
      },
      "isUserRegistered(address)": {
        "details": "Check if a user is registered",
        "returns": {
          "_0": "A bool that indicates if the user is registered"
        }
      }
    },
    "version": 1
  },
  "userdoc": {
    "kind": "user",
    "methods": {},
    "version": 1
  }
}